:020000040800F2
:10000000E0050020D5000008E50E0008F50C00080A
:1000100000000000000000000000000000000000E0
:100020000000000000000000000000006D18000843
:100030000000000000000000D10F00087119000846
:100040000501000805010008050100080501000878
:100050000501000805010008050100080501000868
:100060000501000805010008050100080501000858
:100070000501000805010008050100080501000848
:10008000050100080501000800000000111B000820
:100090000501000805010008311B000805010008E2
:1000A0000501000805010008050100085D210008A0
:1000B0008D2100080000000005010008000000007C
:1000C0000348854600F0CAF9004800479D33000800
:1000D000E00500200C4880F308880C480168090EF0
:1000E0000B4A914205D10B480B4901600B480C4962
:1000F00001600C4880470C480047FEE7FEE7FEE73A
:10010000FEE7FEE7FEE70000E00500200400000037
:100110001F00000018100240010000000000014014
:100120000000000079190008C100000830B50B4636
:10013000014600202022012409E00D46D5409D42C1
:1001400005D31D469540491B254695404019154647
:10015000521E002DF1DC30BD70B50024254600286C
:1001600001DA01244042002901DA01254942FFF762
:10017000DDFFAC4200D04042002C00D0494270BDAF
:10018000D2B201E00270401C491EFBD2704700222F
:10019000F6E710B513460A4604461946FFF7F0FF86
:1001A000204610BD30B504460020034600E05B1C2D
:1001B000934203D2E05CCD5C401BF8D030BD10B55B
:1001C000044600E0401C0378002BFBD100E0401CFB
:1001D000521E04D30B78491C0370002BF7D1002169
:1001E0000170204610BD00000FB400B58DB009901D
:1001F0000B9010A900200091C0430A9000200C90A1
:1002000006480690064807906A4609A80F9900F02C
:10021000F3F80DB008BC04B018470000190400083A
:1002200039040008FFB50027FF4383B000205C6855
:1002300001909E681D46A9697F1C0498884700901C
:10024000296A88470028F6D10098401C0CD003206A
:1002500040028443002E19DD600614D500982B2837
:1002600009D02D280FD103E00020C04307B0F0BD16
:10027000012080020443A9697F1C04988847761EE8
:100280000090002E02DD0098302803D00598002849
:1002900025D035E0012040020443A969761E7F1C69
:1002A000049888470090002E03DD782805D0582850
:1002B00003D00598002810D022E00598002801D02E
:1002C00010281DD1012040028443A969761E7F1C9D
:1002D000049888470090102002E0082000E00A20DF
:1002E00005900DE0012149020C43059A0199761E03
:1002F000514308180190A9697F1C04988847009011
:10030000002E05DD0599009800F061F80028E9DA73
:10031000E96904988847A00502D40120C043A5E7F5
:10032000E00722D1600611D56005019800D5404252
:1003300029680A1D2A600968220501D5087014E0A1
:10034000220701D5088010E008600EE02868011D32
:1003500029600068210502D50199017005E0210797
:10036000019901D5018000E0016038467EE7F0B5D3
:100370001FB40646002082B005464024019100903B
:100380001BE0019922460F46304600F089F8049A96
:10039000059B801A994110D310461946224600F059
:1003A0006FF8361A8F410197224601200021009FE5
:1003B00000F066F838184D4100902046641E002871
:1003C000DFDC019B00982946324607B0F0BD3A2891
:1003D00000D23038202302469A43412A01D31046E6
:1003E0003738884201D30020C04370470268137831
:1003F000511801601846704710B5D1600449516129
:100400000449116200211161114600F061F810BD2C
:10041000ED030008C30400084268002A08D0016800
:100420000B78491C002B03D0521E06C0184670479B
:100430000121C160881E70474268002A0BD0C36842
:100440000168002B07D183688B4204D0491E521CDF
:1004500006C0002070470020C0437047064C0125AD
:10046000064E05E0E36807CC2B430C3C984710345C
:10047000B442F7D3FFF728FEA0340008C0340008C8
:1004800010B5202A04DB0146203A9140002010BD1F
:10049000914020239C1A0346E3401943904010BD2D
:1004A00010B5202A04DB0846203AD040002110BDB8
:1004B0000B46D340D0402024A21A9140084319464D
:1004C00010BD10B50F21C0B2490200F09DF910BD5A
:1004D000F3B58DB000200A9001200B90002608464D
:1004E0000C300C4609906269012109989047051E5D
:1004F0002ED0252D2DD0216A8847002818D062697A
:10050000012109989047216A88470028F7D1411EA8
:1005100062690998904700E0761CA1690D988847A8
:10052000216A88470028F7D1E1690D988847DAE702
:10053000A1690D9888470746A84201D1761CD2E7E9
:10054000E1690D9888477F1C02D10A98002877D06E
:1005500049E1002762693D463946099890472A28B3
:100560000CD16269012109989047012506E00A2112
:100570004F433F18303FEBD41020054362690121FF
:1005800009989047014630390A2903D29B498F4286
:10059000DEDCECE7E90600D4994F6C280AD04C2841
:1005A00010D0682824D06A282ED074280CD07A283D
:1005B0000AD00DE062690121099890476C2823D088
:1005C00004211CE02020054362690121099890471D
:1005D000A760656065284FD026DC582839D01ADC22
:1005E000452849D012DC252834D04128B0D143E039
:1005F0006269012109989047682802D008210D43BB
:10060000E6E70120C002DEE70220DCE7462833D01F
:1006100047282CD130E05B2870D061282CD063288B
:100620006CD0642823D161E06F284FD009DC6628A4
:1006300022D0672820D0692826D06E2817D12EE036
:10064000CDE070284DD073286FD075284ED0782813
:100650000DD154E0A1690D9888470546252800D1A1
:100660006CE7E1690D9888476D1C00D16DE7BAE031
:100670000A224CE00A2252E0012023466A46C04387
:100680000D99C046C046A3E028464021084360605B
:10069000A807234601D5002239E000223FE0E80701
:1006A00000D020E72068011D21600068290501D5E0
:1006B000067018E7290701D5068014E7A90703D5B6
:1006C000F117066041600EE706600CE728464021FE
:1006D00008436060A807234601D5082217E00822D6
:1006E0001DE0484928460840606016E02846402141
:1006F00008436060A8072346BCD5B9E715E0284643
:10070000402108436060A80707D523461022012036
:10071000C0430D99C046C0465AE02346102201202E
:10072000C0430D99FFF77EFD52E000210C910B466E
:100730000091632802D05B2807D043E0E80601D48B
:100740000120A060012000903CE06269012109982D
:1007500090475E2805D101200C90014662690998F6
:1007600090472169002906D10B4601AA8F00491C38
:10077000D3510829FADB002835D0216900290ED190
:10078000C117C90E09184A11930001AA9A184909FC
:100790004901411A012013688840034313606269CC
:1007A0000121099890475D28E5D10C98002808D0D0
:1007B000002001AB81005A58401CD2435A500828EF
:1007C000F8DB01AB01202246C0430D99C046C0466C
:1007D00000280ADA401C06D10B98002803D000201C
:1007E000C0430FB0F0BD0A98FBE7E90702D10A99B0
:1007F000491C0A91361800200B9074E6CCCCCC0C26
:10080000FFFFFF7FF1F7FFFF7F2801D9002207E0FC
:10081000054B42089A5CC00700D112091207120F5B
:1008200001209040084070475E34000810B500F089
:1008300039FD00F087FF022000F05EFF01F002F8B2
:1008400000F0E6FF00F0F8FE012010BD70B50321B6
:10085000012000F0CBFA1F4801F00CFA1E49088075
:1008600000211C4801F07EFB00251B4800881B4925
:10087000097849001A4A50521A480078032804DAC5
:1008800018480078401C1749087014480078401C2C
:10089000124908700846007812490978884202DB3C
:1008A00000200E490870002405E060000C49085A39
:1008B0004519601CC4B20B4800788442F5DB094836
:1008C00001782846FFF732FC0349088001200649D9
:1008D000087070BD00480140580000205A000020F8
:1008E0005C0000205B0000205000002010B50121BA
:1008F000084600F07BFA00200149088010BD000086
:100900005800002010B50121880400F063FB01208D
:10091000C0021549086001200871002088714871E3
:10092000C871124800F064F9012000030E49086004
:1009300001200871002088714871C8710B4800F0CF
:1009400057F92020084908600220087100204871EA
:1009500088710120C871054800F04AF9012205217B
:10096000024800F08DF910BD480000200004004846
:1009700010B501210903044800F0AEF9012801D1A6
:10098000002010BD0120FCE700040048FEB5002057
:10099000029038480078002869D000203549087056
:1009A00000F0A6F8029034480068002802D00298AF
:1009B000002801D10020FEBD2F4801680298814225
:1009C00055D000BF2D4801F058F9002504462A48AB
:1009D00001680298081A00900098002801DB01467F
:1009E00000E041427D221201914201DD64260AE0CD
:1009F0000098002801DB014600E04142642901DD46
:100A00000A2600E001261C4801680298093081424C
:100A100011D97D2189011A480068FFF787FB074635
:100A200028460021A4194841054600203A1BA84148
:100A300000DA3C4616E01048006809300299884206
:100A400010D2FF202D3000F019FC07462846002167
:100A5000A41B8841054629460020E21B814100DA9B
:100A60003C4600BF2146054801F07AFA00BF01204C
:100A7000A1E70000500000205400002000040040C6
:100A80000000002010B50446012C04D101030548E4
:100A900000F02CF904E001210903024800F028F9D4
:100AA000012010BD0004004870B57D21890109486E
:100AB0000068FFF73BFB0646074801F0DEF80546F5
:100AC0006421694308463146FFF730FBC4B2204633
:100AD00070BD0000000000200004004010B501219E
:100AE000C902024800F0F8F810BD000000040048F8
:100AF00070B5084804880025002C00D108E0214684
:100B00000548FFF729FB06460321FFF725FB0546AD
:100B1000A8B270BD58000020808D5B0010B5FFF7B3
:100B2000F1FE01F0C5F901F03FF80120FFF7AAFF3F
:100B300000F008F8002002490860012010BD000004
:100B40005400002010B500200549086000F016F898
:100B50000121C902034800F0C9F8012010BD0000BE
:100B6000540000200004004810B50121C9020248C9
:100B700000F0BEF8012010BD0004004810B5044686
:100B8000FFF7ACFF002800D110BDA0B20349886078
:100B9000034801F021F90120F6E70000A800002039
:100BA0000004004070B50446002505480460204656
:100BB00000F064FB05462846FFF7E0FF70BD00002B
:100BC0005400002010B5012109030920C00600F0DF
:100BD00079F8002805D00821044800F073F80028AF
:100BE00001D1012010BD0020FCE7000000040048F6
:100BF000F0B50A4600210023002400BF3DE0012596
:100C00008D402B4615681D402C469C4234D11579E9
:100C1000012D02D01579022D16D185684F000326CB
:100C2000BE40B543856055794E00B5408668354372
:100C30008560858801268E40B543858085889679B4
:100C40008E40B6B23543858005684F000326BE400E
:100C5000B543056015794E00B5400668354305601B
:100C6000C5684F000326BE40B543C560D5794E0028
:100C7000B540C6683543C560491C1029BFD3F0BDD7
:100C8000F0B5002300244D07EE0E1546B5402B4667
:100C9000CD10AE0005462035AD594E07F70E0F2694
:100CA000BE40B543CE10B60007462037BD51CD102B
:100CB000AE003D46AD591D432C46CD10AD003E461D
:100CC0007451F0BD02460020138A0B40002B01D066
:100CD000012000E00020704702460020938A0B406C
:100CE000002B01D0012000E00020704701857047F3
:100CF0008161704700BFFEE702467F2901DD0020C9
:100D000070474800401C024B98540120F8E700004F
:100D10007500002010B5002421E00120A0401249F8
:100D200009780840002803D00221204600F05EF830
:100D30000E48005D002810D00C48005D401E0B4995
:100D400008550221204600F051F80848005D0028AF
:100D500003D10121204600F049F8601CC4B2032CE5
:100D6000DBDB012010BD00007400002075000020B6
:100D70001CB50121480400F02DF90121480400F0C0
:100D800029F90121880400F025F90120C002009012
:100D9000012168460171002181714171C17169466B
:100DA0000920C006FFF724FFFF2001300090012139
:100DB00068460171002181714171C1716946092044
:100DC000C006FFF715FF0120C0030090012168460F
:100DD0000171002181714171C17169460248FFF7BB
:100DE00007FF01201CBD000000040048F8B50546BF
:100DF0000F46002D04D0012D0AD0022D0DD104E0A4
:100E00000926F6060124E40209E0204E740106E0FA
:100E10000926F606FF24013401E00020F8BD00BFDA
:100E2000002F06D0012F09D0022F13D0032F29D174
:100E300020E0A1B23046FFF75BFF23E0A1B23046CD
:100E4000FFF754FF0120A840114909788143104859
:100E5000017017E0A1B23046FFF73EFF012804D130
:100E6000A1B23046FFF742FF03E0A1B23046FFF7E0
:100E70003FFF07E00120A8400549097808430449DD
:100E8000087000BF00BF0120C8E700000004004850
:100E9000740000201CB50121480400F09BF80121DA
:100EA000880400F097F801200003009000216846B4
:100EB000017181714171C17169460920C006FFF756
:100EC00097FE0820009000216846017181714171F0
:100ED000C17169460248FFF78BFE01201CBD00006E
:100EE000000400487047000000218278002A27D0C3
:100EF000184A03231B02D21803789B109B00D15879
:100F000002789207D30EFF229A400B46934319466C
:100F100042789207120E03789B07DB0E9A4011432A
:100F20000C4A03231B02D21803789B109B00D1505C
:100F30000278D306DB0E01229A40064B1A6007E0C6
:100F40000278D306DB0E01229A40024B80331A60EE
:100F50007047000000E100E010B5002819DA1A4AD5
:100F600003071B0F083B9B089B00D2588307DC0E2E
:100F7000FF23A3409A438B071B0E8407E40EA34074
:100F80001A43114B0407240F083CA408A4001A516B
:100F900018E00E4A03231B02D21883089B00D25884
:100FA0008307DC0EFF23A3409A438B071B0E8407A5
:100FB000E40EA3401A43054B032424021B198408A2
:100FC000A4001A5110BD00001CED00E000E100E09B
:100FD00070470000002905D0054A52690243044BBE
:100FE0005A6104E0024A52698243014B5A617047D8
:100FF00000100240002905D0054AD2690243044B83
:10100000DA6104E0024AD2698243014BDA61704737
:1010100000100240002905D0054A92690243044BA2
:101020009A6104E0024A92698243014B9A617047D7
:1010300000100240FEB50446002500260020029064
:10104000019000900027864840680C210840054622
:10105000002D06D0042D07D0082D08D00C2D2CD142
:1010600028E0804820602BE07E48206028E07C4813
:1010700040680F21890408400646794840680321EA
:10108000C90308400290B00C861C0298002803D1C6
:101090007548374647430BE07148C06A0007000FA8
:1010A000401C01906F480199FFF740F870430746D4
:1010B000276005E06D48206002E06A48206000BFBC
:1010C00000BF67484068F021084005462D09684880
:1010D000405D009020680099C840606060484068AA
:1010E00007210902084005462D0A6148405D00902D
:1010F00061680098C140A1605948006BFF2101312F
:101100000840884202D05B48E0600DE054484068E7
:10111000012189030840884203D0A0684008E060AC
:1011200002E0A0688008E0604D48006B4021084064
:10113000402802D05048206102E00120C003206115
:101140004748006B10210840102802D045486061D4
:1011500001E0206860614248006B8007800F002832
:1011600002D1A068A06119E03D48006B8007800FA4
:10117000012802D12068A06110E03948006B800787
:10118000800F022802D18003A06107E03448006B81
:101190008007800F032801D13248A0613048006BDE
:1011A000032109040840002802D1A068E06120E082
:1011B0002B48006B032109040840012109048842DF
:1011C00002D12068E06114E02548006B0321090486
:1011D000084001214904884202D18010E06108E002
:1011E0001F48006B032109040840884201D11D48B3
:1011F000E0611B48006B032189040840002802D1EC
:10120000A068206220E01648006B03218904084092
:1012100001218904884202D12068206214E010482C
:10122000006B0321890408400121C904884202D1CE
:101230000011206208E00A48006B0321890408407D
:10124000884201D1074820620548006B8021084090
:10125000802802D00548606200E06762FEBD0000A1
:101260000010024000127A0000093D00006CDC0210
:101270001E000020809FD5001280000070B504463B
:101280000649614308460649FEF750FF05467D20A2
:10129000C000854200D90546284670BD10270000D1
:1012A000986E01001CB501218804FFF793FE01210F
:1012B0004804FFF78FFE01214804FFF78BFE012150
:1012C0004804FFF787FE01214804FFF783FE012150
:1012D0008804FFF77FFE01218804FFF77BFE0121D0
:1012E0008804FFF777FE0120800200900121684604
:1012F0000171002181714171C17169463448FFF764
:1013000077FC402000900121684601710021817125
:101310004171C17169460920C006FFF769FC802050
:101320000090012168460171002181714171C171F4
:1013300069460920C006FFF75BFC202000900121D0
:1013400068460171002181714171C17169460920AE
:10135000C006FFF74DFC1020009002216846017185
:10136000002141718171C17169460920C006FFF7F2
:101370003FFC042000900121684601710021817129
:101380004171C17169461248FFF732FC022000909A
:10139000012168460171002181714171C171694665
:1013A0000B48FFF725FC01200090012168460171E0
:1013B000002181714171C17169460548FFF718FC30
:1013C000042211460920C006FFF75AFC1CBD00008C
:1013D0000004004810B520210920C006FFF77CFC5E
:1013E000012801D1022010BD0120FCE710B5002426
:1013F00004211548FFF770FC012800D104430221A5
:101400001148FFF769FC012801D1022004430121A2
:101410000D48FFF761FC012801D10420044323009B
:1014200000F0E6FF080507090B0F0F0F0D0F002056
:1014300010BD0120FCE70220FAE70320F8E70420B2
:10144000F6E7FF20F4E700000004004810B504466A
:10145000230000F0CDFF0504111E2B3845000421A8
:101460002148FFF743FC02211F48FFF73FFC012101
:101470001D48FFF73BFC33E004211B48FFF738FC15
:1014800002211948FFF732FC01211748FFF72EFC13
:1014900026E004211448FFF729FC02211248FFF737
:1014A00027FC01211048FFF721FC19E004210E4818
:1014B000FFF71EFC02210C48FFF71AFC01210A4825
:1014C000FFF714FC0CE004210748FFF711FC022190
:1014D0000548FFF70DFC01210348FFF709FC00BF99
:1014E00000BF012010BD00000004004870B5044694
:1014F000FFF768FB002801D0002070BD00F03AF92A
:10150000002807D000F056F9012803D000F046F972
:10151000012801D10020F0E7002C1DD011480068FF
:10152000002819D000251048046000200F490860E9
:101530000C4801680E48FEF7F9FD0546A8B20D49B2
:1015400048600D4800F03CFDE803000C0B49886042
:10155000094800F0EBFB03E000F0E4F80020CCE7E2
:101560002046CAE76C0000206400002068000020CC
:10157000A0860100BC00002000200040C800002020
:1015800070B50646304608490968484300250446B8
:10159000681E0021001BA94101D2002070BD204619
:1015A000FFF7A4FFFAE7000070000020F8B5054639
:1015B0000C46164627682068A8472060002F02D0F6
:1015C0002068002805D007A13046226800F0FCFE04
:1015D00004E0042205A1304600F0F6FE304601F09A
:1015E00065F9F8BD4F4B2C25640000004552522C84
:1015F0002564000010B5FFF7E5FA002813D10B4869
:1016000000680B490968401A0DD003210120FFF73B
:10161000EDFB0121074800F0B9FA05480068401CBD
:101620000349086001E000F07DF810BD640000206F
:10163000680000200020004008B501210802FFF7E3
:10164000D9FC274800F0FAFC264800F027FC264881
:1016500001682648FEF76AFD80B2214948602349A7
:1016600023480068FEF762FD401E1D4908800020E7
:101670000881887248801F4800F0A2FC7020194938
:1016800008800120488000208881FF2001300882E6
:10169000154801681548FEF749FDC003000C1149C3
:1016A0008860144800F042FB0021124800F05CFA08
:1016B0000021104800F084FB1321684601700321CB
:1016C000417001218170FFF70FFC0821094800F0EB
:1016D0003DFC01221146074800F01DFB08BD00003B
:1016E000BC000020C80000206C000020A086010083
:1016F000000000200020004010B50446012C08D056
:10170000022C0DD120210920C006FFF7F1FA01209B
:1017100010BD20210920C006FFF7E8FA0120F7E7F5
:101720000020F5E710B5002004490860044908606E
:1017300001210846FFF75AFB10BD0000640000209D
:101740006800002010B5FFF7EDFF01218902024873
:10175000FFF7CEFA012010BD0004004810B5FFF7D6
:10176000E1FF012189020248FFF7C0FA012010BD04
:101770000004004810B5012189020448FFF7ACFAC3
:10178000012801D1002010BD0120FCE70004004821
:1017900001480068704700006C00002010B58021EF
:1017A0000920C006FFF798FA012801D1002010BDDA
:1017B0000120FCE710B540210920C006FFF78CFA94
:1017C000012801D1002010BD0120FCE770B50446BE
:1017D0000D4616460948006809490968401A03D0B1
:1017E000FFF7F8FD207001E0002020700448006839
:1017F0002860024800683060012070BD640000204D
:101800006800002001480068704700007000002058
:1018100010B5FFF787FF80210920C006FFF768FA9F
:10182000012010BD01460248016001207047000000
:101830006C00002001460248016001207047000052
:101840007000002010B5FFF76DFF40210920C00691
:10185000FFF74EFA012010BD10B5FFF763FF4021DE
:101860000920C006FFF742FA012010BD70470000B2
:1018700007480068401C06490860642806D100201B
:10188000086004480068401C024908607047000076
:1018900018000020140000200CB5002001900090DA
:1018A000314800680121090408432F49086000BF3E
:1018B0002D48006801214904084000900198401C0F
:1018C00001900098002804D105210903019888425D
:1018D000EED125480068012149040840002802D0C3
:1018E0000120009001E0002000900098012839D1EB
:1018F00011201E4908601C4840681B494860084682
:1019000040684860084640687F21C90388431649FB
:10191000486008464068112109040843124948609C
:10192000084600680121090608430F49086000BF06
:101930000D4800680121490608400028F8D00A48EF
:1019400040688008800008494860084640680221D5
:1019500008430549486000BF034840680C2108401F
:101960000828F9D10CBD0000001002400020024000
:1019700010B5FFF77DFF10BD10B51B4800680121B1
:101980000843194908600846406818490840164944
:101990004860084600681649084013490860084630
:1019A00000680121890488430F490860084640689F
:1019B0003F21090488430C4948600846C06A000971
:1019C0000001C8620846006BFF2154318843064974
:1019D00008630846406B4008400048630020886068
:1019E000FFF75AFF10BD0000001002400CB8FFF8CE
:1019F000FFFFF6FEF0B50C4600210025068C0A4FCD
:101A00003E400684018B058C074EF23E31401E0598
:101A1000360C16433143044E093E35400126264319
:101A2000354301830584F0BDFEFF0000F8B50C4688
:101A30000021002500260096068C0D4F3E400684AE
:101A4000018B058C2605360C00960A4E31401E0788
:101A5000360C31431606360C3143054E903E354068
:101A60001027009E3E43354301830584F8BD0000E6
:101A7000EFFF0000FF0C0000F8B50C460021002528
:101A800000260096068C0C4F3E400684818B058C08
:101A90002606360C0096084E0D3631401E05360CD3
:101AA00016433143054E3540FF270137009E3E4324
:101AB000354381830584F8BDFFFE0000FFF500007B
:101AC000F8B50C460021002500260096068C0D4F27
:101AD0003E400684818B058C2607360C00960A4E04
:101AE00031401606360C31431E07360C3143074E83
:101AF000354001273F03009E3E43354381830584E3
:101B0000F8BD0000FFEF0000FF0C0000FF5F0000C9
:101B100010B50121054800F0B3F8012805D10121D5
:101B2000024800F02FF8FFF765FD10BD00200040CF
:101B300010B502210B4800F0A3F8012805D10221BD
:101B4000084800F01FF8FEF781FE0121054800F06B
:101B500097F8012805D10121024800F013F8FEF79B
:101B6000C5FE10BD00480140002904D00288802332
:101B70001A43028003E00288014B1A40028070473A
:101B80007FFF0000CA43028270470000002904D092
:101B9000028801231A43028003E00288014B1A40A5
:101BA00002807047FEFF000000B589B00121880463
:101BB000FFF730FA01218804FFF70CFA01204002F8
:101BC0000190022168460172032141720021817255
:101BD0000121C17201A92148FFF70AF80222092157
:101BE0001E48FFF74DF81E4807901E491E48006822
:101BF000FEF79CFA401E81B26846018300210184F1
:101C000008A881706846418306A9184800F0D8F9F1
:101C1000002168468181C181012101820021418228
:101C2000818203A9114800F03EF801210F48FFF717
:101C3000ADFF1621684601700221417001218170BB
:101C4000FFF752F901220221084800F064F801224E
:101C50001146064800F05FF809B000BD00040048D6
:101C6000FFFF0000A08601000000002000480140A6
:101C7000818270470146486B70470146886B704708
:101C800030B50246002000230024158A0D402B4663
:101C900095890D402C46002B03D0002C01D001204B
:101CA00000E0002030BD70B505460C4620880028B5
:101CB0000AD12389A28861882846FFF79BFEE18824
:101CC000284600F051F925E0208804280AD123890C
:101CD000A28861882846FFF7A9FEE188284600F01F
:101CE0004DF917E0208808280AD12389A288618845
:101CF0002846FFF7C1FEE188284600F04BF909E0CD
:101D00002389A28861882846FFF7DAFEE188284601
:101D100000F04AF970BD002A03D083890B43838108
:101D200002E083898B4383817047000070B50024F3
:101D300000220023058C1C4E35400584028C8388CC
:101D4000048B194D6F3D2C40B51E2C400D882C4343
:101D5000751E2A408D892A434D882A43134DA84277
:101D600008D0134DA84205D0124DA84202D0124D02
:101D7000A84212D10C4DED1F2A40CD892A430A4DAD
:101D8000ED1E2A408D882A43074DFF3D2B400B4D09
:101D90002B400D8A2B434D8A2B43838004838D680F
:101DA0004563028470BD0000FEFF0000002C01406E
:101DB000004001400044014000480140FFFD000098
:101DC0000A460021018B034B19400B461343194669
:101DD00001837047F7FF000070B500240022002344
:101DE000058C214E35400584028C8388048B1F4D61
:101DF0002C401F4D2C400D782D062D0C2C431A4DD8
:101E0000103D2A408D892D052D0C2A434D882D0526
:101E10002D0C2A43174DA84202D0174DA8421CD1C1
:101E2000164D2B400D8AAD042D0C2B43114DA842AD
:101E300013D10D4D703D2A40CD892D052D0C2A431F
:101E4000094D303D2A408D882D052D0C2A430C4D1F
:101E50002B404D8AAD042D0C2B43838004838D6869
:101E60008563028470BD0000EFFF0000FF8F00005B
:101E7000FFFC0000002C014000400140FFFB00007F
:101E8000FFF700000A460021018B034B194013069F
:101E90001B0C194301837047FFF7000000210180EC
:101EA0004180818081608181C1810182418270474E
:101EB0003EB50A2401210220FFF79CF80121880485
:101EC000FFF788F8684600F0B9F81D48FFF7E6FF0D
:101ED0007D2189011B480068FEF728F980B2019036
:101EE000184801680068FEF721F9401E81B2684673
:101EF0000180002101800181817241806946124880
:101F000000F05EF870200E49088001204880002013
:101F10008881084684600C48FFF75EFF00210A486C
:101F2000FFF722FE00210848FFF7ACFF0121064819
:101F3000FFF72CFE01210448FFF79AFE3EBD00008A
:101F4000A800002000000020000400400288034B8D
:101F50001A40028002880A4302807047F7FF00009F
:101F60008163704741627047028B034B1A400283C2
:101F7000028B0A4302837047F3FF0000028B044B7D
:101F80001A400283028B0B061B0C1A430283704714
:101F9000FFF30000828B034B1A408283828B0A433B
:101FA00082837047F3FF0000828B044B1A408283C8
:101FB000828B0B061B0C1A4382837047FFF30000D1
:101FC00000220288154B984206D001239B079842B5
:101FD00002D0134B984203D1124B1A404B881A433C
:101FE000114B984203D0114B1A400B891A430280BF
:101FF0004B68C3620B880385084B984208D00C4B92
:10200000984205D00B4B984202D00B4B984201D11D
:102010008B7A03860123838270470000002C0140E5
:10202000000400408FFF000000100040FFFC000093
:102030000040014000440140004801400021C943E4
:102040004160002101800181418081727047000060
:10205000FEB504460D46A100304A5158A200304B4F
:102060009A58114308460121FEF7B4FFA1002D4AFA
:1020700050580121FEF7CEFFA1002A4A50580121F5
:10208000FEF7B8FF284B1A5D284B195DA300284EB8
:10209000F058FEF7F5FD274B1A5D274B195DA3009D
:1020A000264EF058FEF7ECFD60002549085A0190D5
:1020B00002216846017201214172002181720121D1
:1020C000C172A1001A4A505801A9FEF791FD6000A3
:1020D0001C49085A0190A1003246505801A9FEF748
:1020E00087FDA100184A5058294600F0D7F8174834
:1020F000015D68460170012141708170FEF7F4FEB8
:10210000A100114A50580122114900F0A6F8A1007F
:102110000D4A5058012100F051F8FEBD3C34000832
:10212000443400083434000858340008543400089B
:10213000380000205A3400085634000840000020BF
:102140004C34000850340008300000205C34000893
:102150000501050010B500F03DF810BD08B50020E0
:1021600000900849084800F051F8002808D00648B7
:1021700000F010F9C1B200916846007800F0B8FB99
:1021800008BD0000050105000038014008B5002029
:1021900000900849084800F039F8002808D006489F
:1021A00000F0F8F8C1B200916846007800F0A0FB9A
:1021B00008BD00000501050000440040002904D0CE
:1021C000026801231A43026003E0026852085200C9
:1021D0000260704700B587B04B20000201900020DC
:1021E00002900390049006900C20059001A9002015
:1021F000FFF72EFF07B000BD02460020D3690B4059
:10220000002B01D0012000E00020704770B502468D
:102210000B4600240021002500201E04350ED9B2F3
:1022200001268E403146012D02D11668314006E06C
:10223000022D02D15668314001E0966831401C0CF5
:102240000126A6403446D6693440002903D0002C2C
:1022500001D0012000E0002070BDF8B50346002445
:10226000002600960025002018460E04340ECEB23B
:1022700000960127009EB7403D46022C01D1001D6B
:1022800002E0032C00D10830002A03D006682E4358
:10229000066002E00668AE430660F8BDF0B58BB09C
:1022A00004460D46002700200A90002620684008BA
:1022B00040002060666803210903304688430646D3
:1022C000A8680643666026682D480640E968686885
:1022D00008432969084306432660A66803210902CA
:1022E00030468843064668690643A6606846FEF79E
:1022F000A1FE2448844202D106980A900DE02248AB
:10230000844202D107980A9007E02048844202D113
:1023100008980A9001E002980A9020680121C903F8
:10232000084000280CD029680A9A5000FDF7FEFEEC
:10233000074629680A9A5000FDF7F8FE0E4609E0A4
:1023400029680A98FDF7F2FE074629680A98FDF702
:10235000EDFE0E4628684008B04200D87F1C206879
:102360000121C9030840002806D03807460F384627
:102370000749084030430746A7810BB0F0BD000075
:10238000F3E9FFFF003801400044004000480040EE
:10239000F0FF00000146888CC005C00D7047CA05DB
:1023A000D20D0285704700000FB410B503A9044B8D
:1023B000044A029800F03AF810BC08BC04B0184770
:1023C000113300087C0000200FB410B504A9074B9E
:1023D00002AA039800F02AF8044602A9002000F09F
:1023E0005FFA204610BC08BC04B01847A1280008BA
:1023F00030B47446641E2578641CAB4204D3635D1C
:102400005B00E31830BC18471D46F8E702E008C837
:10241000121F08C1002AFAD170477047002001E05E
:1024200001C1121F002AFBD170470000FFB591B017
:102430000F460546002606E025280AD0149A13996F
:1024400090476D1C761C28780028F5D1304615B0D1
:10245000F0BD002400940121F34A029400E00443FB
:102460006D1C2B780846203B98401042F7D1287805
:102470002A280ED0022128780246303A092A15D897
:10248000009A0A235A43303A80180C436D1C00907E
:10249000F1E701CF0090002805DA01204003044352
:1024A000009840420090022004436D1C28782E289A
:1024B00015D10420044368786D1C2A280AD101CF65
:1024C0006D1C02900BE002990A22514330394018EA
:1024D0006D1C02902878014630390929F3D92878F3
:1024E0006C2810D006DC4C281AD068280ED06A2838
:1024F00017D104E0742813D07A2812D110E00120FB
:10250000400504430CE00121090501E00321090510
:102510000C436978814203D10120000524186D1C09
:102520006D1C287803906E281ED00CDC632831D0F7
:1025300004DC00288AD0582811D1B2E064287BD06E
:1025400069280CD178E073282DD004DC6F2870D076
:10255000702804D1A7E075286CD078286BD0149A25
:1025600013999047761C62E06002400F022807D062
:1025700003280AD0042838680AD006603F1D56E0B8
:102580003868F11706604160F8E738680680F5E7BB
:102590000670F3E73878694608740020487404A888
:1025A0000390012003E0386803900020C0433F1DE2
:1025B00061070FD5002101E00199491C029A0191A0
:1025C000914213DA8142F7DB019A0399895C002971
:1025D000F2D10BE0002101E00199491C01918142F7
:1025E000FADB019A0399895C0029F5D101990098D9
:1025F000139A401A00902146149B00F03BF9019970
:102600008019461807E0039803990078491C039144
:10261000149A139990470198401E0190401CF2D1E2
:102620002146149B139A009800F014F986196D1C2A
:1026300009E741E033E034E00A20002104900591ED
:102640006002410F022905D001CFC2179446032929
:1026500005D007E0FF1DFF08FF0003CF06E000B232
:10266000C2179446042902D140B2C1178C460022F9
:102670006146944506DA0A460021404291418C4663
:102680002D2102E0210504D52B216A461176012176
:1026900003E0E10701D02021F7E7019154E00A208F
:1026A0000BE0102009E010200490002104200443D6
:1026B00008200591029003E0082000210591049074
:1026C0006002410F022905D001CF00229446032960
:1026D00006D006E0FF1DFF08FF0003CF8C4603E095
:1026E00080B2042900D1C0B20021019121072BD56D
:1026F0000399702906D0049A1021059B4A401A4379
:1027000005D00EE040216A461176012108E06146BD
:10271000014306D030216A46117603995176022191
:102720000191049A0821059B4A401A430CD1614645
:10273000014301D1610707D530216A461176012195
:1027400001910299491E02910399582904D037A199
:1027500003910FA90F910DE039A1F9E76146059B9F
:10276000049AFDF704FE039B8C469B5C0F9A521E55
:102770000F92137061460143F0D10F9807A9081A10
:1027800020300390600704D50120000484430298A0
:1027900001E0012002900399884201DD401A00E027
:1027A000002041180290019809180098401A0090E2
:1027B000E00306D42146149B139A009800F05AF8BF
:1027C00086190020049008E006A9085C149A139961
:1027D00090470498401C761C049001998842F3DBD2
:1027E000E0030CD52146149B139A009800F042F8A0
:1027F000861904E0149A302013999047761C0299A8
:10280000481E02900029F5DC08E00F980F99007827
:10281000491C0F91149A13999047761C0399481EEE
:1028200003900029F1DCFBE6092801003031323346
:1028300034353637383961626364656600000000FC
:1028400030313233343536373839414243444546E6
:1028500000000000F8B5044600251E46174688040F
:1028600004D405E039462020B0476D1C641EF9D51C
:102870002846F8BDFFB50446002581B01E46C803B2
:1028800001D5302700E02027880404D505E038462C
:102890000399B0476D1C641EF9D5284605B0F0BDFC
:1028A0000A68531C0B6010707047000038B504466E
:1028B00000250020009000BF09E0605D002800D1E5
:1028C00007E0615D684600F00DFD681C85B2282DAB
:1028D000F3DB00BF68460278214602A0FFF764FDE3
:1028E000012038BD25733A253032580D0A0000000A
:1028F00010B5044605210220FEF7FEF90A2C07D187
:102900000C4800780C49087000200A49087010E053
:102910000848007814280CDA07480078002808D105
:10292000202C06DB03490878411C024A1170034938
:102930000C5410BD1C0000201D0000208000002051
:1029400070B592B0002011901090002600240F90D6
:10295000FD48007800286EDDFB4806780020FA4923
:10296000087000BF0BE0F948005D3A2800D108E08C
:10297000F648015D0FA800F0B5FC601C84B2B442BB
:10298000F1DB00BFF14A611C501810AAF0A1FDF75D
:102990002BFC012804D108A9097F1098884200D097
:1029A00000BF0922EBA1E948FDF7FCFB002819D183
:1029B000EBA105A8FFF708FD00250DE0E948281860
:1029C000027BE9A104A8FFF7FFFC022204A905A8E5
:1029D000FDF7F5FB681CC5B20C2DEFDB05A8FFF772
:1029E00065FF98E30A22E2A1D848FDF7DBFB002847
:1029F00007D1E2A105A8FFF7E7FC05A8FFF756FFFE
:102A000089E30622E0A1D148FDF7CCFB002825D1BF
:102A100011AADFA1CD48801DFDF7E6FB012814D1E6
:102A20001198FEF7BFF8012806D1DAA105A8119A7E
:102A3000FFF7CAFC05E072E30422D8A105A8FFF75E
:102A4000C3FC05A8FFF732FF65E30222D3A105A866
:102A5000FFF7BAFC05A8FFF729FF5CE30622D1A126
:102A6000BA48FDF79FFB00280BD1FEF741F8054659
:102A70002A46C8A105A8FFF7A7FC05A8FFF716FF7F
:102A800049E30622C9A1B148FDF78CFB002824D1F7
:102A900011AABFA1AD48801DFDF7A6FB012813D1E7
:102AA0001198FEF76BF8012805D1BAA105A8119A73
:102AB000FFF78AFC04E00422B8A105A8FFF784FC14
:102AC00005A8FFF7F3FE26E30222B4A105A8FFF74D
:102AD0007BFC05A8FFF7EAFE1DE30622B5A19B4893
:102AE000FDF760FB00280BD1FDF7DEFF05462A4607
:102AF000A8A105A8FFF768FC05A8FFF7D7FE0AE321
:102B00000622AEA19148FDF74DFB00280AD1FEF741
:102B10002BF800229FA105A8FFF756FC05A8FFF798
:102B2000C5FEF8E20722A7A18848FDF73BFB002875
:102B300005D1FEF707F8A5A0FFF7B8FEEBE20622E5
:102B4000A4A18248FDF72EFB002838D111AA90A13C
:102B50007E48801DFDF748FB012827D111980028E9
:102B600002D0012818D10BE00020FDF78BFF89A1CE
:102B700005A8119AFFF728FC05A8FFF797FE14E0B7
:102B80000120FDF77FFF83A105A8119AFFF71CFC28
:102B900005A8FFF78BFE08E0022280A105A8FFF739
:102BA00013FC05A8FFF782FE00BFB4E202227BA15E
:102BB00005A8FFF709FC05A8FFF778FEABE206229F
:102BC00086A16248FDF7EEFA00280BD1FDF7D0FE92
:102BD00005462A466FA105A8FFF7F6FB05A8FFF7F3
:102BE00065FE98E207227FA15848FDF7DBFA00282E
:102BF0001CD111AA66A15548C01DFDF7F5FA0128A0
:102C00000BD11198FEF70EFE62A105A8119AFFF7ED
:102C1000DBFB05A8FFF74AFE7DE202225FA105A8C3
:102C2000FFF7D2FB05A8FFF741FE74E207226FA170
:102C30004648FDF7B7FA00280BD1FEF7A9FD054677
:102C40002A4654A105A8FFF7BFFB05A8FFF72EFEF3
:102C500061E20D2267A13D48FDF7A4FA00281CD1CE
:102C600011AA4BA139480D30FDF7BEFA01280BD14E
:102C70001198FEF7DFFD47A105A8119AFFF7A4FB05
:102C800005A8FFF713FE46E2022244A105A8FFF7BC
:102C90009BFB05A8FFF70AFE3DE20D2259A12B4838
:102CA000FDF780FA00280BD1FEF7ACFD05462A4659
:102CB00038A105A8FFF788FB05A8FFF7F7FD2AE272
:102CC000082254A12148FDF76DFA002829D111AA44
:102CD0002FA11E480830FDF787FA012818D1119856
:102CE00004280CDC1199C8B2FEF7B0FB29A105A895
:102CF000119AFFF769FB05A8FFF7D8FD0BE2022246
:102D000026A105A8FFF760FB05A8FFF7CFFD02E2AB
:102D1000022222A105A8FFF757FB05A8FFF7C6FD71
:102D2000F9E108223EA10948FDF73CFA00287ED1CE
:102D3000FEF75CFB05462A4616A105A8FFF744FBF3
:102D400005A8FFF7B3FDE6E11D000020800000208C
:102D50002558000047657453657269616C00000076
:102D60004F4B2C00A0F7FF1F253032580000000009
:102D700047657456657273696F6E00004D494D204A
:102D8000302E302E3000000053657452504D00003C
:102D90002C2564004F4B2C25640000004552522C1A
:102DA0002564000047657452504D0000536574500F
:102DB000574D000047657450574D0000424C444346
:102DC0006F6E0000424C44436F6666004F4B2C30E0
:102DD0000000000053657444495200004765744484
:102DE0004952000053657446726571004765744628
:102DF00072657100536574537465707350446973E0
:102E000074000000476574537465707350446973AF
:102E1000740000005365744D6963726F0000000018
:102E20004765744D6963726F00000000FFE706227A
:102E3000BCA1BE48FDF7B6F900281AD111AABC49B9
:102E4000BA48801DFDF7D0F9012808D10220FEF70D
:102E500053FC05AA11A9B748FEF7A8FB5BE10222C3
:102E6000B3490C3105A8FFF7AFFA05A8FFF71EFD1F
:102E700051E10822B0A1AD48FDF794F9002819D11D
:102E800011AAAB49A9480830FDF7AEF9012807D1CE
:102E9000FEF732FC05AA11A9A648FEF787FB3AE126
:102EA0000222A3490C3105A8FFF78EFA05A8FFF707
:102EB000FDFC30E10A22A3A19C48FDF773F900282C
:102EC0001AD111AA9A4999480A30FDF78DF90128BB
:102ED00008D10220FEF710FC05AA11A99C48FEF7B4
:102EE00065FB18E1022292490C3105A8FFF76CFA44
:102EF00005A8FFF7DBFC0EE10C2296A18B48FDF73D
:102F000051F9002819D111AA894988480C30FDF7D8
:102F10006BF9012807D1FEF7EFFB05AA11A98C4830
:102F2000FEF744FBF7E0022281490C3105A8FFF7C8
:102F30004BFA05A8FFF7BAFCEDE00A2289A17B480D
:102F4000FDF730F9002811D102AA03A904A8FEF761
:102F50003DFC029800906846027C85A105A8039B71
:102F6000FFF732FA05A8FFF7A1FCD4E0062283A1FF
:102F70006E48FDF717F9002808D1FEF7EFFBFEF7C2
:102F800061FC6B483C30FFF791FCC4E007227DA157
:102F90006648FDF707F9002806D1FEF7D3FB644821
:102FA0003C30FFF783FCB6E0072278A15F48FDF7CD
:102FB000F9F8002806D1FEF74FFC5D483C30FFF7DA
:102FC00075FCA8E0082273A15848FDF7EBF800282B
:102FD00006D1FEF737FC56483C30FFF767FC9AE015
:102FE00008226FA15148FDF7DDF800280CD1FEF74B
:102FF000E1FB05462A464E49091D05A8FFF7E4F9FD
:1030000005A8FFF753FC86E0082268A14748FDF7B2
:10301000C9F8002876D146483C30FFF747FC66489F
:10302000018866A0FFF7C0F96348818866A0FFF7B2
:10303000BBF96148018967A0FFF7B6F95E4881894D
:1030400068A0FFF7B1F95C48018A6AA0FFF7ACF904
:103050005948818A6AA0FFF7A7F95748018B6BA0EE
:10306000FFF7A2F95448818B6CA0FFF79DF95248F5
:10307000203001886DA0FFF797F94F48818A6FA033
:10308000FFF792F94C48203001896FA0FFF78CF9C7
:103090004948C16A6FA0FFF787F947482030018A85
:1030A0006FA0FFF781F94448416B70A0FFF77CF9EE
:1030B0004148816B71A0FFF777F93F48C16B73A05E
:1030C000FFF772F93C484030016874A0FFF76CF9D3
:1030D00039484030818875A0FFF766F9364840309E
:1030E000018976A0FFF760F933484030818976A0E6
:1030F000FFF75AF930484030018A77A0FFF754F9BA
:1031000009E0FFE701220A490C3105A8FFF75CF945
:1031100005A8FFF7CBFB28210448FDF738F812B0CB
:1031200070BD00004D6F7665557000008000002076
:10313000902D0008ED1400084D6F7665446F776E92
:10314000000000004D6F766544697374557000008F
:10315000811500084D6F766544697374446F776E0E
:10316000000000005354455053746174757300009F
:103170004F4B2C25642C25642C256400535445505A
:103180006F6E0000535445506F666600536C656562
:10319000704F6E00536C6565704F666600000000EE
:1031A000476574536C656570000000004765745492
:1031B000494D313700000000004801404352313A88
:1031C00020253034780D0A004352323A202530341D
:1031D000780D0A00534D43523A20253034780D0AB9
:1031E00000000000444945523A20253034780D0A49
:1031F0000000000053523A20253034780D0A0000B8
:103200004547523A20253034780D0A0043434D5249
:10321000313A20253034780D0A00000043434D52E6
:10322000323A20253034780D0A00000043434552DD
:103230003A20253034780D0A00000000434E543AFD
:1032400020253034780D0A005053433A202530347D
:10325000780D0A004152523A20253034780D0A0088
:103260005243523A20253034780D0A0043435231FC
:103270003A20253034780D0A0000000043435232D2
:103280003A20253034780D0A0000000043435233C1
:103290003A20253034780D0A0000000043435234B0
:1032A0003A20253034780D0A000000004244545280
:1032B0003A20253034780D0A000000004443523A89
:1032C00020253034780D0A00444D41523A202530F3
:1032D00034780D0A000000004F523A20253034782F
:1032E0000D0A000070B504460D4607480078002816
:1032F00001D100F02DF8207868400449085C207066
:103300002078207070BD000078000020DC000020D4
:1033100070B504460D46E1B20B48FFF740F8E1B244
:103320000A48FFF73CF800BF80210748FEF764FF1A
:103330000028F9D000BF80210448FEF75DFF002877
:10334000F9D0204670BD0000003801400044004024
:1033500010B5104B1B78002B1BD1002014E0C1B21C
:1033600000220BE04B0080240C40002C01D00724ED
:1033700000E000246340D9B2531C9AB2082AF1DB62
:10338000054C2154431C98B2FF28E8DD0123014C71
:10339000237010BD78000020DC000020FEF7DAFE6C
:1033A000FDF7BCFBFDF742FAFDF7E2FCFDF772FD0D
:1033B0007D21C90019480068FCF7B8FE0446601E6C
:1033C0001749884201D901200CE0601E1549486167
:1033D0000321081FFDF7C0FD002012498861072066
:1033E00008610020002804D00FA0FEF7DDFF00BF19
:1033F000FEE700210846FDF7F9FC0EE0FFF7A0FA12
:103400000B480068002808D009480068401E084999
:103410000860FDF7BBFAFDF77DFCEFE70000002038
:10342000FFFFFF0000E000E04552522C300000009A
:103430001400002000400000000002000000020014
:103440000000020000000200000002000002004034
:1034500000040080090E0A0F010101011B1CDDDDC3
:10346000DDDDDCBBBBDDDDDDDDDDDDDDDDDD98886B
:103470008888888888887777777777888888855557
:1034800055566666666666666666666888888333CD
:10349000333222222222222222222228888D000058
:1034A000C034000800000020800000000C24000848
:1034B0004035000880000020600500001C24000842
:1034C00000127A0000000000000000000102030466
:1034D00006070809000000000000000000000000CE
:1034E00000000102030401020304060708090000AA
:1034F000003801400044004000000048000000483F
:10350000000000480000004800000000000000002B
:1035100000000000000000000000000000000000AB
:10352000000000000000000000000000C8000000D3
:103530006009000000000000000000000000000022
:04000005080000C12E
:00000001FF
